{
  "contractName": "CryptoPets",
  "abi": [
    {
      "constant": false,
      "inputs": [],
      "name": "unpause",
      "outputs": [],
      "payable": false,
      "stateMutability": "nonpayable",
      "type": "function"
    },
    {
      "constant": true,
      "inputs": [],
      "name": "operator",
      "outputs": [
        {
          "name": "",
          "type": "address"
        }
      ],
      "payable": false,
      "stateMutability": "view",
      "type": "function"
    },
    {
      "constant": true,
      "inputs": [],
      "name": "paused",
      "outputs": [
        {
          "name": "",
          "type": "bool"
        }
      ],
      "payable": false,
      "stateMutability": "view",
      "type": "function"
    },
    {
      "constant": false,
      "inputs": [
        {
          "name": "_newAdmin",
          "type": "address"
        }
      ],
      "name": "setAdmin",
      "outputs": [],
      "payable": false,
      "stateMutability": "nonpayable",
      "type": "function"
    },
    {
      "constant": false,
      "inputs": [],
      "name": "pause",
      "outputs": [],
      "payable": false,
      "stateMutability": "nonpayable",
      "type": "function"
    },
    {
      "constant": false,
      "inputs": [
        {
          "name": "_newOperator",
          "type": "address"
        }
      ],
      "name": "setOperator",
      "outputs": [],
      "payable": false,
      "stateMutability": "nonpayable",
      "type": "function"
    },
    {
      "constant": true,
      "inputs": [],
      "name": "admin",
      "outputs": [
        {
          "name": "",
          "type": "address"
        }
      ],
      "payable": false,
      "stateMutability": "view",
      "type": "function"
    },
    {
      "anonymous": false,
      "inputs": [
        {
          "indexed": true,
          "name": "owner",
          "type": "address"
        },
        {
          "indexed": false,
          "name": "id",
          "type": "uint256"
        },
        {
          "indexed": false,
          "name": "name",
          "type": "string"
        },
        {
          "indexed": false,
          "name": "dna",
          "type": "string"
        },
        {
          "indexed": false,
          "name": "blockNumber",
          "type": "uint256"
        }
      ],
      "name": "TokenCreated",
      "type": "event"
    },
    {
      "anonymous": false,
      "inputs": [
        {
          "indexed": true,
          "name": "owner",
          "type": "address"
        },
        {
          "indexed": false,
          "name": "tokenId",
          "type": "uint256"
        },
        {
          "indexed": false,
          "name": "oldName",
          "type": "string"
        },
        {
          "indexed": false,
          "name": "newName",
          "type": "string"
        },
        {
          "indexed": false,
          "name": "blockNumber",
          "type": "uint256"
        }
      ],
      "name": "PetNameChanged",
      "type": "event"
    },
    {
      "anonymous": false,
      "inputs": [
        {
          "indexed": true,
          "name": "_from",
          "type": "address"
        },
        {
          "indexed": true,
          "name": "_to",
          "type": "address"
        },
        {
          "indexed": false,
          "name": "_tokenId",
          "type": "uint256"
        }
      ],
      "name": "Transfer",
      "type": "event"
    },
    {
      "anonymous": false,
      "inputs": [
        {
          "indexed": true,
          "name": "_owner",
          "type": "address"
        },
        {
          "indexed": true,
          "name": "_approved",
          "type": "address"
        },
        {
          "indexed": false,
          "name": "_tokenId",
          "type": "uint256"
        }
      ],
      "name": "Approval",
      "type": "event"
    },
    {
      "constant": false,
      "inputs": [
        {
          "name": "_owner",
          "type": "address"
        },
        {
          "name": "_name",
          "type": "string"
        },
        {
          "name": "_dna",
          "type": "string"
        }
      ],
      "name": "createToken",
      "outputs": [],
      "payable": false,
      "stateMutability": "nonpayable",
      "type": "function"
    },
    {
      "constant": false,
      "inputs": [
        {
          "name": "_name",
          "type": "string"
        },
        {
          "name": "_dna",
          "type": "string"
        }
      ],
      "name": "payForToken",
      "outputs": [],
      "payable": true,
      "stateMutability": "payable",
      "type": "function"
    },
    {
      "constant": false,
      "inputs": [
        {
          "name": "_tokenId",
          "type": "uint256"
        },
        {
          "name": "_newName",
          "type": "string"
        }
      ],
      "name": "changePetName",
      "outputs": [],
      "payable": false,
      "stateMutability": "nonpayable",
      "type": "function"
    },
    {
      "constant": true,
      "inputs": [
        {
          "name": "_tokenId",
          "type": "uint256"
        }
      ],
      "name": "getToken",
      "outputs": [
        {
          "name": "_owner",
          "type": "address"
        },
        {
          "name": "_name",
          "type": "string"
        },
        {
          "name": "_dna",
          "type": "string"
        }
      ],
      "payable": false,
      "stateMutability": "view",
      "type": "function"
    },
    {
      "constant": true,
      "inputs": [
        {
          "name": "_owner",
          "type": "address"
        }
      ],
      "name": "balanceOf",
      "outputs": [
        {
          "name": "",
          "type": "uint256"
        }
      ],
      "payable": false,
      "stateMutability": "view",
      "type": "function"
    },
    {
      "constant": true,
      "inputs": [
        {
          "name": "_tokenId",
          "type": "uint256"
        }
      ],
      "name": "ownerOf",
      "outputs": [
        {
          "name": "",
          "type": "address"
        }
      ],
      "payable": false,
      "stateMutability": "view",
      "type": "function"
    },
    {
      "constant": true,
      "inputs": [
        {
          "name": "_tokenId",
          "type": "uint256"
        }
      ],
      "name": "getApproved",
      "outputs": [
        {
          "name": "",
          "type": "address"
        }
      ],
      "payable": false,
      "stateMutability": "view",
      "type": "function"
    },
    {
      "constant": false,
      "inputs": [
        {
          "name": "_to",
          "type": "address"
        },
        {
          "name": "_tokenId",
          "type": "uint256"
        }
      ],
      "name": "approve",
      "outputs": [],
      "payable": false,
      "stateMutability": "nonpayable",
      "type": "function"
    },
    {
      "constant": false,
      "inputs": [
        {
          "name": "_from",
          "type": "address"
        },
        {
          "name": "_to",
          "type": "address"
        },
        {
          "name": "_tokenId",
          "type": "uint256"
        }
      ],
      "name": "safeTransferFrom",
      "outputs": [],
      "payable": false,
      "stateMutability": "nonpayable",
      "type": "function"
    }
  ],
  "bytecode": "0x60806040526000600160146101000a81548160ff02191690831515021790555034801561002b57600080fd5b50611d718061003b6000396000f3006080604052600436106100e6576000357c0100000000000000000000000000000000000000000000000000000000900463ffffffff168063081812fc146100eb578063095ea7b3146101585780632b3c7109146101a55780633f4ba83a1461021857806342842e0e1461022f578063570ca7351461029c5780635c975abb146102f35780636352211e14610322578063704b6c021461038f57806370a08231146103d25780638456cb5914610429578063b3ab15fb14610440578063d4c6a3c114610483578063e4b50cb814610552578063f632609e14610697578063f851a44014610739575b600080fd5b3480156100f757600080fd5b5061011660048036038101908080359060200190929190505050610790565b604051808273ffffffffffffffffffffffffffffffffffffffff1673ffffffffffffffffffffffffffffffffffffffff16815260200191505060405180910390f35b34801561016457600080fd5b506101a3600480360381019080803573ffffffffffffffffffffffffffffffffffffffff169060200190929190803590602001909291905050506107cd565b005b3480156101b157600080fd5b5061021660048036038101908080359060200190929190803590602001908201803590602001908080601f0160208091040260200160405190810160405280939291908181526020018383808284378201915050505050509192919290505050610951565b005b34801561022457600080fd5b5061022d610ba4565b005b34801561023b57600080fd5b5061029a600480360381019080803573ffffffffffffffffffffffffffffffffffffffff169060200190929190803573ffffffffffffffffffffffffffffffffffffffff16906020019092919080359060200190929190505050610c37565b005b3480156102a857600080fd5b506102b1610edc565b604051808273ffffffffffffffffffffffffffffffffffffffff1673ffffffffffffffffffffffffffffffffffffffff16815260200191505060405180910390f35b3480156102ff57600080fd5b50610308610f02565b604051808215151515815260200191505060405180910390f35b34801561032e57600080fd5b5061034d60048036038101908080359060200190929190505050610f15565b604051808273ffffffffffffffffffffffffffffffffffffffff1673ffffffffffffffffffffffffffffffffffffffff16815260200191505060405180910390f35b34801561039b57600080fd5b506103d0600480360381019080803573ffffffffffffffffffffffffffffffffffffffff169060200190929190505050610f52565b005b3480156103de57600080fd5b50610413600480360381019080803573ffffffffffffffffffffffffffffffffffffffff169060200190929190505050610ff0565b6040518082815260200191505060405180910390f35b34801561043557600080fd5b5061043e611039565b005b34801561044c57600080fd5b50610481600480360381019080803573ffffffffffffffffffffffffffffffffffffffff1690602001909291905050506110cc565b005b34801561048f57600080fd5b50610550600480360381019080803573ffffffffffffffffffffffffffffffffffffffff169060200190929190803590602001908201803590602001908080601f0160208091040260200160405190810160405280939291908181526020018383808284378201915050505050509192919290803590602001908201803590602001908080601f016020809104026020016040519081016040528093929190818152602001838380828437820191505050505050919291929050505061116b565b005b34801561055e57600080fd5b5061057d6004803603810190808035906020019092919050505061126a565b604051808473ffffffffffffffffffffffffffffffffffffffff1673ffffffffffffffffffffffffffffffffffffffff1681526020018060200180602001838103835285818151815260200191508051906020019080838360005b838110156105f35780820151818401526020810190506105d8565b50505050905090810190601f1680156106205780820380516001836020036101000a031916815260200191505b50838103825284818151815260200191508051906020019080838360005b8381101561065957808201518184015260208101905061063e565b50505050905090810190601f1680156106865780820380516001836020036101000a031916815260200191505b509550505050505060405180910390f35b610737600480360381019080803590602001908201803590602001908080601f0160208091040260200160405190810160405280939291908181526020018383808284378201915050505050509192919290803590602001908201803590602001908080601f0160208091040260200160405190810160405280939291908181526020018383808284378201915050505050509192919290505050611422565b005b34801561074557600080fd5b5061074e611447565b604051808273ffffffffffffffffffffffffffffffffffffffff1673ffffffffffffffffffffffffffffffffffffffff16815260200191505060405180910390f35b60006003600083815260200190815260200160002060009054906101000a900473ffffffffffffffffffffffffffffffffffffffff169050919050565b600073ffffffffffffffffffffffffffffffffffffffff168273ffffffffffffffffffffffffffffffffffffffff161415151561080957600080fd5b3373ffffffffffffffffffffffffffffffffffffffff1661082982610f15565b73ffffffffffffffffffffffffffffffffffffffff1614151561084b57600080fd5b61085481610f15565b73ffffffffffffffffffffffffffffffffffffffff168273ffffffffffffffffffffffffffffffffffffffff161415151561088e57600080fd5b816003600083815260200190815260200160002060006101000a81548173ffffffffffffffffffffffffffffffffffffffff021916908373ffffffffffffffffffffffffffffffffffffffff1602179055508173ffffffffffffffffffffffffffffffffffffffff1661090082610f15565b73ffffffffffffffffffffffffffffffffffffffff167f8c5be1e5ebec7d5bd14f71427d1e84f3dd0314c0f7b2291e5b200ac8c7c3b925836040518082815260200191505060405180910390a35050565b600060603373ffffffffffffffffffffffffffffffffffffffff1661097585610f15565b73ffffffffffffffffffffffffffffffffffffffff1614151561099757600080fd5b6005848154811015156109a657fe5b90600052602060002090600202019150816000018054600181600116156101000203166002900480601f016020809104026020016040519081016040528092919081815260200182805460018160011615610100020316600290048015610a4e5780601f10610a2357610100808354040283529160200191610a4e565b820191906000526020600020905b815481529060010190602001808311610a3157829003601f168201915b5050505050905082826000019080519060200190610a6d929190611c06565b503373ffffffffffffffffffffffffffffffffffffffff167f41b3ae5652dff765e1bb3ad64cbc215ee135be12163abeaa1d7ca510ec353e0c85838643604051808581526020018060200180602001848152602001838103835286818151815260200191508051906020019080838360005b83811015610afa578082015181840152602081019050610adf565b50505050905090810190601f168015610b275780820380516001836020036101000a031916815260200191505b50838103825285818151815260200191508051906020019080838360005b83811015610b60578082015181840152602081019050610b45565b50505050905090810190601f168015610b8d5780820380516001836020036101000a031916815260200191505b50965050505050505060405180910390a250505050565b6000809054906101000a900473ffffffffffffffffffffffffffffffffffffffff1673ffffffffffffffffffffffffffffffffffffffff163373ffffffffffffffffffffffffffffffffffffffff16141515610bff57600080fd5b600160149054906101000a900460ff161515610c1a57600080fd5b6000600160146101000a81548160ff021916908315150217905550565b80610c42338261146c565b1515610c4d57600080fd5b600073ffffffffffffffffffffffffffffffffffffffff168473ffffffffffffffffffffffffffffffffffffffff1614151515610c8957600080fd5b600073ffffffffffffffffffffffffffffffffffffffff168373ffffffffffffffffffffffffffffffffffffffff1614151515610cc557600080fd5b60011515610ce88473ffffffffffffffffffffffffffffffffffffffff1661151b565b1515148015610e49575063f0b9e5ba7c0100000000000000000000000000000000000000000000000000000000027bffffffffffffffffffffffffffffffffffffffffffffffffffffffff19168373ffffffffffffffffffffffffffffffffffffffff1663f0b9e5ba86856040518363ffffffff167c0100000000000000000000000000000000000000000000000000000000028152600401808373ffffffffffffffffffffffffffffffffffffffff1673ffffffffffffffffffffffffffffffffffffffff168152602001828152602001806020018281038252600081526020016020019350505050602060405180830381600087803b158015610dec57600080fd5b505af1158015610e00573d6000803e3d6000fd5b505050506040513d6020811015610e1657600080fd5b81019080805190602001909291905050507bffffffffffffffffffffffffffffffffffffffffffffffffffffffff191614155b15610e5357600080fd5b610e5d848361152e565b610e678483611697565b610e7183836117c6565b8273ffffffffffffffffffffffffffffffffffffffff168473ffffffffffffffffffffffffffffffffffffffff167fddf252ad1be2c89b69c2b068fc378daa952ba7f163c4a11628f55a4df523b3ef846040518082815260200191505060405180910390a350505050565b600160009054906101000a900473ffffffffffffffffffffffffffffffffffffffff1681565b600160149054906101000a900460ff1681565b60006002600083815260200190815260200160002060009054906101000a900473ffffffffffffffffffffffffffffffffffffffff169050919050565b6000809054906101000a900473ffffffffffffffffffffffffffffffffffffffff1673ffffffffffffffffffffffffffffffffffffffff163373ffffffffffffffffffffffffffffffffffffffff16141515610fad57600080fd5b806000806101000a81548173ffffffffffffffffffffffffffffffffffffffff021916908373ffffffffffffffffffffffffffffffffffffffff16021790555050565b6000600460008373ffffffffffffffffffffffffffffffffffffffff1673ffffffffffffffffffffffffffffffffffffffff168152602001908152602001600020549050919050565b6000809054906101000a900473ffffffffffffffffffffffffffffffffffffffff1673ffffffffffffffffffffffffffffffffffffffff163373ffffffffffffffffffffffffffffffffffffffff1614151561109457600080fd5b600160149054906101000a900460ff161515156110b057600080fd5b60018060146101000a81548160ff021916908315150217905550565b6000809054906101000a900473ffffffffffffffffffffffffffffffffffffffff1673ffffffffffffffffffffffffffffffffffffffff163373ffffffffffffffffffffffffffffffffffffffff1614151561112757600080fd5b80600160006101000a81548173ffffffffffffffffffffffffffffffffffffffff021916908373ffffffffffffffffffffffffffffffffffffffff16021790555050565b6000809054906101000a900473ffffffffffffffffffffffffffffffffffffffff1673ffffffffffffffffffffffffffffffffffffffff163373ffffffffffffffffffffffffffffffffffffffff1614806112135750600160009054906101000a900473ffffffffffffffffffffffffffffffffffffffff1673ffffffffffffffffffffffffffffffffffffffff163373ffffffffffffffffffffffffffffffffffffffff16145b151561121e57600080fd5b600073ffffffffffffffffffffffffffffffffffffffff168373ffffffffffffffffffffffffffffffffffffffff161415151561125a57600080fd5b611265838383611920565b505050565b60006060806002600085815260200190815260200160002060009054906101000a900473ffffffffffffffffffffffffffffffffffffffff1692506005848154811015156112b457fe5b90600052602060002090600202016000018054600181600116156101000203166002900480601f0160208091040260200160405190810160405280929190818152602001828054600181600116156101000203166002900480156113595780601f1061132e57610100808354040283529160200191611359565b820191906000526020600020905b81548152906001019060200180831161133c57829003601f168201915b5050505050915060058481548110151561136f57fe5b90600052602060002090600202016001018054600181600116156101000203166002900480601f0160208091040260200160405190810160405280929190818152602001828054600181600116156101000203166002900480156114145780601f106113e957610100808354040283529160200191611414565b820191906000526020600020905b8154815290600101906020018083116113f757829003601f168201915b505050505090509193909250565b66b1a2bc2ec50000341015151561143857600080fd5b611443338383611920565b5050565b6000809054906101000a900473ffffffffffffffffffffffffffffffffffffffff1681565b60008061147883610f15565b90508073ffffffffffffffffffffffffffffffffffffffff168473ffffffffffffffffffffffffffffffffffffffff16148061151257506003600084815260200190815260200160002060009054906101000a900473ffffffffffffffffffffffffffffffffffffffff1673ffffffffffffffffffffffffffffffffffffffff168473ffffffffffffffffffffffffffffffffffffffff16145b91505092915050565b600080823b905060008111915050919050565b8173ffffffffffffffffffffffffffffffffffffffff1661154e82610f15565b73ffffffffffffffffffffffffffffffffffffffff1614151561157057600080fd5b600073ffffffffffffffffffffffffffffffffffffffff166003600083815260200190815260200160002060009054906101000a900473ffffffffffffffffffffffffffffffffffffffff1673ffffffffffffffffffffffffffffffffffffffff161415156116935760006003600083815260200190815260200160002060006101000a81548173ffffffffffffffffffffffffffffffffffffffff021916908373ffffffffffffffffffffffffffffffffffffffff160217905550600073ffffffffffffffffffffffffffffffffffffffff168273ffffffffffffffffffffffffffffffffffffffff167f8c5be1e5ebec7d5bd14f71427d1e84f3dd0314c0f7b2291e5b200ac8c7c3b925836040518082815260200191505060405180910390a35b5050565b8173ffffffffffffffffffffffffffffffffffffffff166116b782610f15565b73ffffffffffffffffffffffffffffffffffffffff161415156116d957600080fd5b61172c6001600460008573ffffffffffffffffffffffffffffffffffffffff1673ffffffffffffffffffffffffffffffffffffffff16815260200190815260200160002054611bcf90919063ffffffff16565b600460008473ffffffffffffffffffffffffffffffffffffffff1673ffffffffffffffffffffffffffffffffffffffff1681526020019081526020016000208190555060006002600083815260200190815260200160002060006101000a81548173ffffffffffffffffffffffffffffffffffffffff021916908373ffffffffffffffffffffffffffffffffffffffff1602179055505050565b600073ffffffffffffffffffffffffffffffffffffffff166002600083815260200190815260200160002060009054906101000a900473ffffffffffffffffffffffffffffffffffffffff1673ffffffffffffffffffffffffffffffffffffffff1614151561183457600080fd5b816002600083815260200190815260200160002060006101000a81548173ffffffffffffffffffffffffffffffffffffffff021916908373ffffffffffffffffffffffffffffffffffffffff1602179055506118d96001600460008573ffffffffffffffffffffffffffffffffffffffff1673ffffffffffffffffffffffffffffffffffffffff16815260200190815260200160002054611be890919063ffffffff16565b600460008473ffffffffffffffffffffffffffffffffffffffff1673ffffffffffffffffffffffffffffffffffffffff168152602001908152602001600020819055505050565b611928611c86565b60006040805190810160405280858152602001848152509150600160058390806001815401808255809150509060018203906000526020600020906002020160009091929091909150600082015181600001908051906020019061198d929190611ca0565b5060208201518160010190805190602001906119aa929190611ca0565b505050039050846002600083815260200190815260200160002060006101000a81548173ffffffffffffffffffffffffffffffffffffffff021916908373ffffffffffffffffffffffffffffffffffffffff160217905550611a556001600460008873ffffffffffffffffffffffffffffffffffffffff1673ffffffffffffffffffffffffffffffffffffffff16815260200190815260200160002054611be890919063ffffffff16565b600460008773ffffffffffffffffffffffffffffffffffffffff1673ffffffffffffffffffffffffffffffffffffffff168152602001908152602001600020819055508473ffffffffffffffffffffffffffffffffffffffff167fd24b23e36236935323e48d29e3171bc700dcc951a9d4714bbf82354128d529e782868643604051808581526020018060200180602001848152602001838103835286818151815260200191508051906020019080838360005b83811015611b24578082015181840152602081019050611b09565b50505050905090810190601f168015611b515780820380516001836020036101000a031916815260200191505b50838103825285818151815260200191508051906020019080838360005b83811015611b8a578082015181840152602081019050611b6f565b50505050905090810190601f168015611bb75780820380516001836020036101000a031916815260200191505b50965050505050505060405180910390a25050505050565b6000828211151515611bdd57fe5b818303905092915050565b6000808284019050838110151515611bfc57fe5b8091505092915050565b828054600181600116156101000203166002900490600052602060002090601f016020900481019282601f10611c4757805160ff1916838001178555611c75565b82800160010185558215611c75579182015b82811115611c74578251825591602001919060010190611c59565b5b509050611c829190611d20565b5090565b604080519081016040528060608152602001606081525090565b828054600181600116156101000203166002900490600052602060002090601f016020900481019282601f10611ce157805160ff1916838001178555611d0f565b82800160010185558215611d0f579182015b82811115611d0e578251825591602001919060010190611cf3565b5b509050611d1c9190611d20565b5090565b611d4291905b80821115611d3e576000816000905550600101611d26565b5090565b905600a165627a7a72305820063a8056b531b4ee851133a58745aecbe7aaa00d1b066b186671fc58bf41f7940029",
  "source": "pragma solidity ^0.4.18;\n\nimport \"./libs/AccessControl.sol\";\nimport \"./libs/SafeMath.sol\";\nimport \"./libs/AddressUtils.sol\";\nimport \"./erc721/ERC721Basic.sol\";\nimport \"./erc721/ERC721Receiver.sol\";\n\ncontract CryptoPets is AccessControl, ERC721Basic {\n    using SafeMath for uint256;\n    using AddressUtils for address;\n    // Equals to `bytes4(keccak256(\"onERC721Received(address,uint256,bytes)\"))`\n    bytes4 constant ERC721_RECEIVED = 0xf0b9e5ba;\n    \n    event TokenCreated(address indexed owner, uint256 id, string name, string dna, uint256 blockNumber);\n    event PetNameChanged(address indexed owner, uint256 tokenId, string oldName, string newName, uint256 blockNumber);\n\n    // mapping from token ID to owner.\n    mapping (uint256 => address) internal tokenOwner;\n    \n    // mapping from token ID to approved address.\n    mapping (uint256 => address) internal tokenApprovals;\n    \n    // mapping from address to number of owned token.\n    mapping (address => uint256) internal ownedTokensCount;\n\n    // mapping from address to array of owned token.        \n    //mapping (address => uint256[]) internal ownedTokensList;\n    \n    modifier canTransfer(uint256 _tokenId) {\n        require(isApprovedOrOwner(msg.sender, _tokenId));\n        _;\n    }\n    \n    struct Pet {\n        string name;\n        string dna;\n    }\n    \n    // keep all pets\n    Pet[] internal pets;\n\n    \n    /// @dev create a new Pet token by admin or operator\n    function createToken(address _owner, string _name, string _dna) public onlyCLevel {\n        require (_owner != address(0));\n        \n        _createToken(_owner, _name, _dna);\n    }\n    \n    function payForToken(string _name, string _dna) public payable {\n        require(msg.value >= 0.05 ether);\n        \n        _createToken(msg.sender, _name, _dna);\n    }\n    \n    function _createToken(address _owner, string _name, string _dna) internal {\n        Pet memory pet = Pet({\n            name: _name,\n            dna: _dna\n        });\n        \n        uint256 newTokenId = pets.push(pet) - 1;\n        tokenOwner[newTokenId] = _owner;\n        ownedTokensCount[_owner] = ownedTokensCount[_owner].add(1);\n        \n        emit TokenCreated(_owner, newTokenId, _name, _dna, block.number);\n    }\n\n    function changePetName(uint256 _tokenId, string _newName) public {\n        require (ownerOf(_tokenId) == msg.sender);\n        \n        Pet storage pet = pets[_tokenId];\n        string memory oldName = pet.name;\n        pet.name = _newName;\n\n        emit PetNameChanged(msg.sender, _tokenId, oldName, _newName, block.number);\n    }\n    \n    function getToken(uint256 _tokenId) public view returns\n    (\n        address _owner, \n        string _name, \n        string _dna\n    ) {\n        _owner = tokenOwner[_tokenId];\n        _name = pets[_tokenId].name;\n        _dna = pets[_tokenId].dna;\n    }\n    \n    /// @dev return number of token `_owner` owned.\n    function balanceOf(address _owner) public view returns (uint256) {\n        return ownedTokensCount[_owner];\n    }\n    \n    /// @dev return token's owner.\n    function ownerOf(uint256 _tokenId) public view returns (address) {\n        return tokenOwner[_tokenId];\n    }\n    \n    function getApproved(uint256 _tokenId) public view returns (address) {\n        return tokenApprovals[_tokenId];\n    }\n    \n    function approve(address _to, uint256 _tokenId) public {\n        require(_to != address(0));\n        require(ownerOf(_tokenId) == msg.sender);\n        require(_to != ownerOf(_tokenId));\n        \n        tokenApprovals[_tokenId] = _to;\n        emit Approval(ownerOf(_tokenId), _to, _tokenId);\n    }\n    \n    function isApprovedOrOwner(address _spender, uint256 _tokenId) internal view returns (bool) {\n        address owner = ownerOf(_tokenId);\n        return _spender == owner || _spender == tokenApprovals[_tokenId];\n    }\n     \n    /// @dev transfer `_tokenId` from `_from` to `_to`.\n    function safeTransferFrom(address _from, address _to, uint256 _tokenId) public canTransfer(_tokenId) {\n        require(address(_from) != address(0));\n        require(address(_to) != address(0));\n    \n        if(_to.isContract() == true && ERC721Receiver(_to).onERC721Received(_from, _tokenId, \"\") != ERC721_RECEIVED) {\n            revert();\n        }\n    \n        clearApproval(_from, _tokenId);\n        removeTokenFrom(_from, _tokenId);\n        addTokenTo(_to, _tokenId);\n        \n        emit Transfer(_from, _to, _tokenId);\n    }\n    \n    function clearApproval(address _owner, uint256 _tokenId) internal {\n        require(ownerOf(_tokenId) == _owner);\n        \n        if (tokenApprovals[_tokenId] != address(0)) {\n            tokenApprovals[_tokenId] = address(0);\n            emit Approval(_owner, address(0), _tokenId);\n        }\n    }\n    \n    function removeTokenFrom(address _from, uint256 _tokenId) internal {\n        require(ownerOf(_tokenId) == _from);\n        ownedTokensCount[_from] = ownedTokensCount[_from].sub(1);\n        tokenOwner[_tokenId] = address(0);\n    }\n    \n    function addTokenTo(address _to, uint256 _tokenId) internal {\n        require(tokenOwner[_tokenId] == address(0));\n        tokenOwner[_tokenId] = _to;\n        ownedTokensCount[_to] = ownedTokensCount[_to].add(1);\n    }\n}",
  "sourcePath": "/Users/tam/Desktop/crypto-pets/contracts/CryptoPets.sol",
  "compiler": {
    "name": "solc",
    "version": "0.4.23+commit.124ca40d.Emscripten.clang"
  },
  "schemaVersion": "2.0.0",
  "updatedAt": "2018-05-12T15:50:36.941Z"
}