{
  "contractName": "Main",
  "abi": [
    {
      "constant": true,
      "inputs": [
        {
          "name": "_tokenId",
          "type": "uint256"
        }
      ],
      "name": "getApproved",
      "outputs": [
        {
          "name": "",
          "type": "address"
        }
      ],
      "payable": false,
      "stateMutability": "view",
      "type": "function"
    },
    {
      "constant": false,
      "inputs": [
        {
          "name": "_to",
          "type": "address"
        },
        {
          "name": "_tokenId",
          "type": "uint256"
        }
      ],
      "name": "approve",
      "outputs": [],
      "payable": false,
      "stateMutability": "nonpayable",
      "type": "function"
    },
    {
      "constant": false,
      "inputs": [
        {
          "name": "_tokenId",
          "type": "uint256"
        },
        {
          "name": "_newName",
          "type": "string"
        }
      ],
      "name": "changePetName",
      "outputs": [],
      "payable": false,
      "stateMutability": "nonpayable",
      "type": "function"
    },
    {
      "constant": false,
      "inputs": [],
      "name": "unpause",
      "outputs": [],
      "payable": false,
      "stateMutability": "nonpayable",
      "type": "function"
    },
    {
      "constant": true,
      "inputs": [
        {
          "name": "",
          "type": "address"
        }
      ],
      "name": "sellingTokenOwner",
      "outputs": [
        {
          "name": "",
          "type": "uint256"
        }
      ],
      "payable": false,
      "stateMutability": "view",
      "type": "function"
    },
    {
      "constant": false,
      "inputs": [
        {
          "name": "_from",
          "type": "address"
        },
        {
          "name": "_to",
          "type": "address"
        },
        {
          "name": "_tokenId",
          "type": "uint256"
        }
      ],
      "name": "safeTransferFrom",
      "outputs": [],
      "payable": false,
      "stateMutability": "nonpayable",
      "type": "function"
    },
    {
      "constant": true,
      "inputs": [],
      "name": "operator",
      "outputs": [
        {
          "name": "",
          "type": "address"
        }
      ],
      "payable": false,
      "stateMutability": "view",
      "type": "function"
    },
    {
      "constant": true,
      "inputs": [],
      "name": "paused",
      "outputs": [
        {
          "name": "",
          "type": "bool"
        }
      ],
      "payable": false,
      "stateMutability": "view",
      "type": "function"
    },
    {
      "constant": true,
      "inputs": [
        {
          "name": "_tokenId",
          "type": "uint256"
        }
      ],
      "name": "ownerOf",
      "outputs": [
        {
          "name": "",
          "type": "address"
        }
      ],
      "payable": false,
      "stateMutability": "view",
      "type": "function"
    },
    {
      "constant": false,
      "inputs": [
        {
          "name": "_newAdmin",
          "type": "address"
        }
      ],
      "name": "setAdmin",
      "outputs": [],
      "payable": false,
      "stateMutability": "nonpayable",
      "type": "function"
    },
    {
      "constant": true,
      "inputs": [
        {
          "name": "_owner",
          "type": "address"
        }
      ],
      "name": "balanceOf",
      "outputs": [
        {
          "name": "",
          "type": "uint256"
        }
      ],
      "payable": false,
      "stateMutability": "view",
      "type": "function"
    },
    {
      "constant": true,
      "inputs": [
        {
          "name": "",
          "type": "uint256"
        }
      ],
      "name": "sellingTokens",
      "outputs": [
        {
          "name": "tokenId",
          "type": "uint256"
        },
        {
          "name": "price",
          "type": "uint256"
        },
        {
          "name": "isSold",
          "type": "bool"
        },
        {
          "name": "seller",
          "type": "address"
        }
      ],
      "payable": false,
      "stateMutability": "view",
      "type": "function"
    },
    {
      "constant": false,
      "inputs": [],
      "name": "pause",
      "outputs": [],
      "payable": false,
      "stateMutability": "nonpayable",
      "type": "function"
    },
    {
      "constant": false,
      "inputs": [
        {
          "name": "_newOperator",
          "type": "address"
        }
      ],
      "name": "setOperator",
      "outputs": [],
      "payable": false,
      "stateMutability": "nonpayable",
      "type": "function"
    },
    {
      "constant": false,
      "inputs": [
        {
          "name": "_owner",
          "type": "address"
        },
        {
          "name": "_name",
          "type": "string"
        },
        {
          "name": "_dna",
          "type": "string"
        }
      ],
      "name": "createToken",
      "outputs": [],
      "payable": false,
      "stateMutability": "nonpayable",
      "type": "function"
    },
    {
      "constant": true,
      "inputs": [],
      "name": "minPrice",
      "outputs": [
        {
          "name": "",
          "type": "uint256"
        }
      ],
      "payable": false,
      "stateMutability": "view",
      "type": "function"
    },
    {
      "constant": true,
      "inputs": [
        {
          "name": "_tokenId",
          "type": "uint256"
        }
      ],
      "name": "getToken",
      "outputs": [
        {
          "name": "_owner",
          "type": "address"
        },
        {
          "name": "_name",
          "type": "string"
        },
        {
          "name": "_dna",
          "type": "string"
        }
      ],
      "payable": false,
      "stateMutability": "view",
      "type": "function"
    },
    {
      "constant": false,
      "inputs": [
        {
          "name": "_name",
          "type": "string"
        },
        {
          "name": "_dna",
          "type": "string"
        }
      ],
      "name": "payForToken",
      "outputs": [],
      "payable": true,
      "stateMutability": "payable",
      "type": "function"
    },
    {
      "constant": true,
      "inputs": [],
      "name": "admin",
      "outputs": [
        {
          "name": "",
          "type": "address"
        }
      ],
      "payable": false,
      "stateMutability": "view",
      "type": "function"
    },
    {
      "inputs": [
        {
          "name": "_admin",
          "type": "address"
        },
        {
          "name": "_operator",
          "type": "address"
        }
      ],
      "payable": false,
      "stateMutability": "nonpayable",
      "type": "constructor"
    },
    {
      "anonymous": false,
      "inputs": [
        {
          "indexed": true,
          "name": "_seller",
          "type": "address"
        },
        {
          "indexed": false,
          "name": "_tokenId",
          "type": "uint256"
        },
        {
          "indexed": false,
          "name": "_price",
          "type": "uint256"
        },
        {
          "indexed": false,
          "name": "_blockNumber",
          "type": "uint256"
        }
      ],
      "name": "SellToken",
      "type": "event"
    },
    {
      "anonymous": false,
      "inputs": [
        {
          "indexed": true,
          "name": "_buyer",
          "type": "address"
        },
        {
          "indexed": true,
          "name": "_seller",
          "type": "address"
        },
        {
          "indexed": false,
          "name": "_tokenId",
          "type": "uint256"
        },
        {
          "indexed": false,
          "name": "_price",
          "type": "uint256"
        },
        {
          "indexed": false,
          "name": "_blockNumber",
          "type": "uint256"
        }
      ],
      "name": "BuyToken",
      "type": "event"
    },
    {
      "anonymous": false,
      "inputs": [
        {
          "indexed": true,
          "name": "_seller",
          "type": "address"
        },
        {
          "indexed": false,
          "name": "_tokenId",
          "type": "uint256"
        },
        {
          "indexed": false,
          "name": "_blockNumber",
          "type": "uint256"
        }
      ],
      "name": "CancelOrder",
      "type": "event"
    },
    {
      "anonymous": false,
      "inputs": [
        {
          "indexed": true,
          "name": "owner",
          "type": "address"
        },
        {
          "indexed": false,
          "name": "id",
          "type": "uint256"
        },
        {
          "indexed": false,
          "name": "name",
          "type": "string"
        },
        {
          "indexed": false,
          "name": "dna",
          "type": "string"
        },
        {
          "indexed": false,
          "name": "blockNumber",
          "type": "uint256"
        }
      ],
      "name": "TokenCreated",
      "type": "event"
    },
    {
      "anonymous": false,
      "inputs": [
        {
          "indexed": true,
          "name": "owner",
          "type": "address"
        },
        {
          "indexed": false,
          "name": "tokenId",
          "type": "uint256"
        },
        {
          "indexed": false,
          "name": "oldName",
          "type": "string"
        },
        {
          "indexed": false,
          "name": "newName",
          "type": "string"
        },
        {
          "indexed": false,
          "name": "blockNumber",
          "type": "uint256"
        }
      ],
      "name": "PetNameChanged",
      "type": "event"
    },
    {
      "anonymous": false,
      "inputs": [
        {
          "indexed": true,
          "name": "_from",
          "type": "address"
        },
        {
          "indexed": true,
          "name": "_to",
          "type": "address"
        },
        {
          "indexed": false,
          "name": "_tokenId",
          "type": "uint256"
        }
      ],
      "name": "Transfer",
      "type": "event"
    },
    {
      "anonymous": false,
      "inputs": [
        {
          "indexed": true,
          "name": "_owner",
          "type": "address"
        },
        {
          "indexed": true,
          "name": "_approved",
          "type": "address"
        },
        {
          "indexed": false,
          "name": "_tokenId",
          "type": "uint256"
        }
      ],
      "name": "Approval",
      "type": "event"
    },
    {
      "constant": false,
      "inputs": [
        {
          "name": "_from",
          "type": "address"
        },
        {
          "name": "_tokenId",
          "type": "uint256"
        },
        {
          "name": "_data",
          "type": "bytes"
        }
      ],
      "name": "onERC721Received",
      "outputs": [
        {
          "name": "",
          "type": "bytes4"
        }
      ],
      "payable": false,
      "stateMutability": "nonpayable",
      "type": "function"
    },
    {
      "constant": false,
      "inputs": [
        {
          "name": "_tokenId",
          "type": "uint256"
        },
        {
          "name": "_price",
          "type": "uint256"
        }
      ],
      "name": "sellToken",
      "outputs": [],
      "payable": false,
      "stateMutability": "nonpayable",
      "type": "function"
    },
    {
      "constant": false,
      "inputs": [
        {
          "name": "_tokenId",
          "type": "uint256"
        }
      ],
      "name": "buyToken",
      "outputs": [],
      "payable": true,
      "stateMutability": "payable",
      "type": "function"
    },
    {
      "constant": false,
      "inputs": [
        {
          "name": "_tokenId",
          "type": "uint256"
        }
      ],
      "name": "cancelOrder",
      "outputs": [],
      "payable": false,
      "stateMutability": "nonpayable",
      "type": "function"
    },
    {
      "constant": true,
      "inputs": [
        {
          "name": "_tokenId",
          "type": "uint256"
        }
      ],
      "name": "getPriceByTokenId",
      "outputs": [
        {
          "name": "",
          "type": "uint256"
        }
      ],
      "payable": false,
      "stateMutability": "view",
      "type": "function"
    },
    {
      "constant": true,
      "inputs": [
        {
          "name": "_tokenId",
          "type": "uint256"
        }
      ],
      "name": "getSellingStatusByTokenId",
      "outputs": [
        {
          "name": "",
          "type": "bool"
        }
      ],
      "payable": false,
      "stateMutability": "view",
      "type": "function"
    },
    {
      "constant": true,
      "inputs": [
        {
          "name": "_tokenId",
          "type": "uint256"
        }
      ],
      "name": "getSellerAddressByTokenId",
      "outputs": [
        {
          "name": "",
          "type": "address"
        }
      ],
      "payable": false,
      "stateMutability": "view",
      "type": "function"
    },
    {
      "constant": true,
      "inputs": [
        {
          "name": "_seller",
          "type": "address"
        }
      ],
      "name": "getListOfTokenBySeller",
      "outputs": [
        {
          "name": "",
          "type": "uint256[]"
        }
      ],
      "payable": false,
      "stateMutability": "view",
      "type": "function"
    }
  ],
  "bytecode": "0x60806040526000600160146101000a81548160ff02191690831515021790555066b1a2bc2ec5000060095534801561003657600080fd5b50604051604080612ee98339810180604052810190808051906020019092919080519060200190929190505050816000806101000a81548173ffffffffffffffffffffffffffffffffffffffff021916908373ffffffffffffffffffffffffffffffffffffffff16021790555080600160006101000a81548173ffffffffffffffffffffffffffffffffffffffff021916908373ffffffffffffffffffffffffffffffffffffffff1602179055505050612df4806100f56000396000f30060806040526004361061015f576000357c0100000000000000000000000000000000000000000000000000000000900463ffffffff168063081812fc14610164578063095ea7b3146101d15780631897bcf31461021e5780632b3c7109146102555780632d296bf1146102c85780633f4ba83a146102e85780633f72d703146102ff57806342842e0e14610356578063514fcac7146103c3578063570ca735146103f05780635c975abb146104475780636352211e14610476578063704b6c02146104e357806370a08231146105265780637ec37d9d1461057d5780638157c1ab146105ea5780638456cb591461067057806399899d1214610687578063a71f8d08146106c8578063b3ab15fb14610760578063d4c6a3c1146107a3578063e45be8eb14610872578063e4b50cb81461089d578063f0b9e5ba146109e2578063f632609e14610ac7578063f851a44014610b69578063fb116d3214610bc0575b600080fd5b34801561017057600080fd5b5061018f60048036038101908080359060200190929190505050610c05565b604051808273ffffffffffffffffffffffffffffffffffffffff1673ffffffffffffffffffffffffffffffffffffffff16815260200191505060405180910390f35b3480156101dd57600080fd5b5061021c600480360381019080803573ffffffffffffffffffffffffffffffffffffffff16906020019092919080359060200190929190505050610c42565b005b34801561022a57600080fd5b506102536004803603810190808035906020019092919080359060200190929190505050610dc6565b005b34801561026157600080fd5b506102c660048036038101908080359060200190929190803590602001908201803590602001908080601f0160208091040260200160405190810160405280939291908181526020018383808284378201915050505050509192919290505050611002565b005b6102e660048036038101908080359060200190929190505050611255565b005b3480156102f457600080fd5b506102fd6115bc565b005b34801561030b57600080fd5b50610340600480360381019080803573ffffffffffffffffffffffffffffffffffffffff16906020019092919050505061164f565b6040518082815260200191505060405180910390f35b34801561036257600080fd5b506103c1600480360381019080803573ffffffffffffffffffffffffffffffffffffffff169060200190929190803573ffffffffffffffffffffffffffffffffffffffff16906020019092919080359060200190929190505050611667565b005b3480156103cf57600080fd5b506103ee6004803603810190808035906020019092919050505061190c565b005b3480156103fc57600080fd5b50610405611c3d565b604051808273ffffffffffffffffffffffffffffffffffffffff1673ffffffffffffffffffffffffffffffffffffffff16815260200191505060405180910390f35b34801561045357600080fd5b5061045c611c63565b604051808215151515815260200191505060405180910390f35b34801561048257600080fd5b506104a160048036038101908080359060200190929190505050611c76565b604051808273ffffffffffffffffffffffffffffffffffffffff1673ffffffffffffffffffffffffffffffffffffffff16815260200191505060405180910390f35b3480156104ef57600080fd5b50610524600480360381019080803573ffffffffffffffffffffffffffffffffffffffff169060200190929190505050611cb3565b005b34801561053257600080fd5b50610567600480360381019080803573ffffffffffffffffffffffffffffffffffffffff169060200190929190505050611d51565b6040518082815260200191505060405180910390f35b34801561058957600080fd5b506105a860048036038101908080359060200190929190505050611d9a565b604051808273ffffffffffffffffffffffffffffffffffffffff1673ffffffffffffffffffffffffffffffffffffffff16815260200191505060405180910390f35b3480156105f657600080fd5b5061061560048036038101908080359060200190929190505050611dfc565b60405180858152602001848152602001831515151581526020018273ffffffffffffffffffffffffffffffffffffffff1673ffffffffffffffffffffffffffffffffffffffff16815260200194505050505060405180910390f35b34801561067c57600080fd5b50610685611e68565b005b34801561069357600080fd5b506106b260048036038101908080359060200190929190505050611efb565b6040518082815260200191505060405180910390f35b3480156106d457600080fd5b50610709600480360381019080803573ffffffffffffffffffffffffffffffffffffffff169060200190929190505050611f3d565b6040518080602001828103825283818151815260200191508051906020019060200280838360005b8381101561074c578082015181840152602081019050610731565b505050509050019250505060405180910390f35b34801561076c57600080fd5b506107a1600480360381019080803573ffffffffffffffffffffffffffffffffffffffff16906020019092919050505061208a565b005b3480156107af57600080fd5b50610870600480360381019080803573ffffffffffffffffffffffffffffffffffffffff169060200190929190803590602001908201803590602001908080601f0160208091040260200160405190810160405280939291908181526020018383808284378201915050505050509192919290803590602001908201803590602001908080601f0160208091040260200160405190810160405280939291908181526020018383808284378201915050505050509192919290505050612129565b005b34801561087e57600080fd5b50610887612228565b6040518082815260200191505060405180910390f35b3480156108a957600080fd5b506108c86004803603810190808035906020019092919050505061222e565b604051808473ffffffffffffffffffffffffffffffffffffffff1673ffffffffffffffffffffffffffffffffffffffff1681526020018060200180602001838103835285818151815260200191508051906020019080838360005b8381101561093e578082015181840152602081019050610923565b50505050905090810190601f16801561096b5780820380516001836020036101000a031916815260200191505b50838103825284818151815260200191508051906020019080838360005b838110156109a4578082015181840152602081019050610989565b50505050905090810190601f1680156109d15780820380516001836020036101000a031916815260200191505b509550505050505060405180910390f35b3480156109ee57600080fd5b50610a73600480360381019080803573ffffffffffffffffffffffffffffffffffffffff16906020019092919080359060200190929190803590602001908201803590602001908080601f01602080910402602001604051908101604052809392919081815260200183838082843782019150505050505091929192905050506123e6565b60405180827bffffffffffffffffffffffffffffffffffffffffffffffffffffffff19167bffffffffffffffffffffffffffffffffffffffffffffffffffffffff1916815260200191505060405180910390f35b610b67600480360381019080803590602001908201803590602001908080601f0160208091040260200160405190810160405280939291908181526020018383808284378201915050505050509192919290803590602001908201803590602001908080601f0160208091040260200160405190810160405280939291908181526020018383808284378201915050505050509192919290505050612415565b005b348015610b7557600080fd5b50610b7e61243a565b604051808273ffffffffffffffffffffffffffffffffffffffff1673ffffffffffffffffffffffffffffffffffffffff16815260200191505060405180910390f35b348015610bcc57600080fd5b50610beb6004803603810190808035906020019092919050505061245f565b604051808215151515815260200191505060405180910390f35b60006003600083815260200190815260200160002060009054906101000a900473ffffffffffffffffffffffffffffffffffffffff169050919050565b600073ffffffffffffffffffffffffffffffffffffffff168273ffffffffffffffffffffffffffffffffffffffff1614151515610c7e57600080fd5b3373ffffffffffffffffffffffffffffffffffffffff16610c9e82611c76565b73ffffffffffffffffffffffffffffffffffffffff16141515610cc057600080fd5b610cc981611c76565b73ffffffffffffffffffffffffffffffffffffffff168273ffffffffffffffffffffffffffffffffffffffff1614151515610d0357600080fd5b816003600083815260200190815260200160002060006101000a81548173ffffffffffffffffffffffffffffffffffffffff021916908373ffffffffffffffffffffffffffffffffffffffff1602179055508173ffffffffffffffffffffffffffffffffffffffff16610d7582611c76565b73ffffffffffffffffffffffffffffffffffffffff167f8c5be1e5ebec7d5bd14f71427d1e84f3dd0314c0f7b2291e5b200ac8c7c3b925836040518082815260200191505060405180910390a35050565b610dce612c48565b600083610ddb33826124ae565b1515610de657600080fd5b6009548410151515610df757600080fd5b610e02333087611667565b6080604051908101604052808681526020018581526020016000151581526020013373ffffffffffffffffffffffffffffffffffffffff168152509250600160068490806001815401808255809150509060018203906000526020600020906003020160009091929091909150600082015181600001556020820151816001015560408201518160020160006101000a81548160ff02191690831515021790555060608201518160020160016101000a81548173ffffffffffffffffffffffffffffffffffffffff021916908373ffffffffffffffffffffffffffffffffffffffff1602179055505050039150816008600087815260200190815260200160002081905550610f5a6001600760003373ffffffffffffffffffffffffffffffffffffffff1673ffffffffffffffffffffffffffffffffffffffff1681526020019081526020016000205461255d90919063ffffffff16565b600760003373ffffffffffffffffffffffffffffffffffffffff1673ffffffffffffffffffffffffffffffffffffffff168152602001908152602001600020819055503373ffffffffffffffffffffffffffffffffffffffff167fbc6a70357c1f438297a419fdda7ea10b11e5e821fa940afc814d2e1fa9c755d786864360405180848152602001838152602001828152602001935050505060405180910390a25050505050565b600060603373ffffffffffffffffffffffffffffffffffffffff1661102685611c76565b73ffffffffffffffffffffffffffffffffffffffff1614151561104857600080fd5b60058481548110151561105757fe5b90600052602060002090600202019150816000018054600181600116156101000203166002900480601f0160208091040260200160405190810160405280929190818152602001828054600181600116156101000203166002900480156110ff5780601f106110d4576101008083540402835291602001916110ff565b820191906000526020600020905b8154815290600101906020018083116110e257829003601f168201915b505050505090508282600001908051906020019061111e929190612c89565b503373ffffffffffffffffffffffffffffffffffffffff167f41b3ae5652dff765e1bb3ad64cbc215ee135be12163abeaa1d7ca510ec353e0c85838643604051808581526020018060200180602001848152602001838103835286818151815260200191508051906020019080838360005b838110156111ab578082015181840152602081019050611190565b50505050905090810190601f1680156111d85780820380516001836020036101000a031916815260200191505b50838103825285818151815260200191508051906020019080838360005b838110156112115780820151818401526020810190506111f6565b50505050905090810190601f16801561123e5780820380516001836020036101000a031916815260200191505b50965050505050505060405180910390a250505050565b6000806000806008600086815260200190815260200160002054935060068481548110151561128057fe5b906000526020600020906003020160020160019054906101000a900473ffffffffffffffffffffffffffffffffffffffff1692506006848154811015156112c357fe5b90600052602060002090600302016001015491508134101515156112e657600080fd5b3073ffffffffffffffffffffffffffffffffffffffff166342842e0e3033886040518463ffffffff167c0100000000000000000000000000000000000000000000000000000000028152600401808473ffffffffffffffffffffffffffffffffffffffff1673ffffffffffffffffffffffffffffffffffffffff1681526020018373ffffffffffffffffffffffffffffffffffffffff1673ffffffffffffffffffffffffffffffffffffffff1681526020018281526020019350505050600060405180830381600087803b1580156113bd57600080fd5b505af11580156113d1573d6000803e3d6000fd5b505050508273ffffffffffffffffffffffffffffffffffffffff166108fc839081150290604051600060405180830381858888f1935050505015801561141b573d6000803e3d6000fd5b50600160068581548110151561142d57fe5b906000526020600020906003020160020160006101000a81548160ff0219169083151502179055506114a86001600760008673ffffffffffffffffffffffffffffffffffffffff1673ffffffffffffffffffffffffffffffffffffffff1681526020019081526020016000205461257b90919063ffffffff16565b600760008573ffffffffffffffffffffffffffffffffffffffff1673ffffffffffffffffffffffffffffffffffffffff16815260200190815260200160002081905550813411156115405781340390503373ffffffffffffffffffffffffffffffffffffffff166108fc829081150290604051600060405180830381858888f1935050505015801561153e573d6000803e3d6000fd5b505b8273ffffffffffffffffffffffffffffffffffffffff163373ffffffffffffffffffffffffffffffffffffffff167fd1f116b823703573c10cf254298cdfbfa441ecd81f48776013aff32f09a27e8a87854360405180848152602001838152602001828152602001935050505060405180910390a35050505050565b6000809054906101000a900473ffffffffffffffffffffffffffffffffffffffff1673ffffffffffffffffffffffffffffffffffffffff163373ffffffffffffffffffffffffffffffffffffffff1614151561161757600080fd5b600160149054906101000a900460ff16151561163257600080fd5b6000600160146101000a81548160ff021916908315150217905550565b60076020528060005260406000206000915090505481565b8061167233826124ae565b151561167d57600080fd5b600073ffffffffffffffffffffffffffffffffffffffff168473ffffffffffffffffffffffffffffffffffffffff16141515156116b957600080fd5b600073ffffffffffffffffffffffffffffffffffffffff168373ffffffffffffffffffffffffffffffffffffffff16141515156116f557600080fd5b600115156117188473ffffffffffffffffffffffffffffffffffffffff16612594565b1515148015611879575063f0b9e5ba7c0100000000000000000000000000000000000000000000000000000000027bffffffffffffffffffffffffffffffffffffffffffffffffffffffff19168373ffffffffffffffffffffffffffffffffffffffff1663f0b9e5ba86856040518363ffffffff167c0100000000000000000000000000000000000000000000000000000000028152600401808373ffffffffffffffffffffffffffffffffffffffff1673ffffffffffffffffffffffffffffffffffffffff168152602001828152602001806020018281038252600081526020016020019350505050602060405180830381600087803b15801561181c57600080fd5b505af1158015611830573d6000803e3d6000fd5b505050506040513d602081101561184657600080fd5b81019080805190602001909291905050507bffffffffffffffffffffffffffffffffffffffffffffffffffffffff191614155b1561188357600080fd5b61188d84836125a7565b6118978483612710565b6118a1838361283f565b8273ffffffffffffffffffffffffffffffffffffffff168473ffffffffffffffffffffffffffffffffffffffff167fddf252ad1be2c89b69c2b068fc378daa952ba7f163c4a11628f55a4df523b3ef846040518082815260200191505060405180910390a350505050565b60008060006008600085815260200190815260200160002054925060068381548110151561193657fe5b906000526020600020906003020160020160019054906101000a900473ffffffffffffffffffffffffffffffffffffffff16915060068381548110151561197957fe5b90600052602060002090600302016001015490508173ffffffffffffffffffffffffffffffffffffffff163373ffffffffffffffffffffffffffffffffffffffff161415156119c757600080fd5b3073ffffffffffffffffffffffffffffffffffffffff166342842e0e3033876040518463ffffffff167c0100000000000000000000000000000000000000000000000000000000028152600401808473ffffffffffffffffffffffffffffffffffffffff1673ffffffffffffffffffffffffffffffffffffffff1681526020018373ffffffffffffffffffffffffffffffffffffffff1673ffffffffffffffffffffffffffffffffffffffff1681526020018281526020019350505050600060405180830381600087803b158015611a9e57600080fd5b505af1158015611ab2573d6000803e3d6000fd5b5050505060066008600086815260200190815260200160002054815481101515611ad857fe5b906000526020600020906003020160008082016000905560018201600090556002820160006101000a81549060ff02191690556002820160016101000a81549073ffffffffffffffffffffffffffffffffffffffff021916905550506008600085815260200190815260200160002060009055611b9e6001600760003373ffffffffffffffffffffffffffffffffffffffff1673ffffffffffffffffffffffffffffffffffffffff1681526020019081526020016000205461257b90919063ffffffff16565b600760003373ffffffffffffffffffffffffffffffffffffffff1673ffffffffffffffffffffffffffffffffffffffff168152602001908152602001600020819055503373ffffffffffffffffffffffffffffffffffffffff167f1e0e8a7901ee871b939f18e3937f188af21bf9885762ec9c84917abc9fbaf1fa8543604051808381526020018281526020019250505060405180910390a250505050565b600160009054906101000a900473ffffffffffffffffffffffffffffffffffffffff1681565b600160149054906101000a900460ff1681565b60006002600083815260200190815260200160002060009054906101000a900473ffffffffffffffffffffffffffffffffffffffff169050919050565b6000809054906101000a900473ffffffffffffffffffffffffffffffffffffffff1673ffffffffffffffffffffffffffffffffffffffff163373ffffffffffffffffffffffffffffffffffffffff16141515611d0e57600080fd5b806000806101000a81548173ffffffffffffffffffffffffffffffffffffffff021916908373ffffffffffffffffffffffffffffffffffffffff16021790555050565b6000600460008373ffffffffffffffffffffffffffffffffffffffff1673ffffffffffffffffffffffffffffffffffffffff168152602001908152602001600020549050919050565b60008060086000848152602001908152602001600020549050600681815481101515611dc257fe5b906000526020600020906003020160020160019054906101000a900473ffffffffffffffffffffffffffffffffffffffff16915050919050565b600681815481101515611e0b57fe5b90600052602060002090600302016000915090508060000154908060010154908060020160009054906101000a900460ff16908060020160019054906101000a900473ffffffffffffffffffffffffffffffffffffffff16905084565b6000809054906101000a900473ffffffffffffffffffffffffffffffffffffffff1673ffffffffffffffffffffffffffffffffffffffff163373ffffffffffffffffffffffffffffffffffffffff16141515611ec357600080fd5b600160149054906101000a900460ff16151515611edf57600080fd5b60018060146101000a81548160ff021916908315150217905550565b60008060086000848152602001908152602001600020549050600681815481101515611f2357fe5b906000526020600020906003020160010154915050919050565b606080600080600760008673ffffffffffffffffffffffffffffffffffffffff1673ffffffffffffffffffffffffffffffffffffffff16815260200190815260200160002054604051908082528060200260200182016040528015611fb15781602001602082028038833980820191505090505b50925060009150600090505b60068054905081101561207f578473ffffffffffffffffffffffffffffffffffffffff16600682815481101515611ff057fe5b906000526020600020906003020160020160019054906101000a900473ffffffffffffffffffffffffffffffffffffffff1673ffffffffffffffffffffffffffffffffffffffff1614156120725780838381518110151561204d57fe5b906020019060200201818152505061206f60018361255d90919063ffffffff16565b91505b8080600101915050611fbd565b829350505050919050565b6000809054906101000a900473ffffffffffffffffffffffffffffffffffffffff1673ffffffffffffffffffffffffffffffffffffffff163373ffffffffffffffffffffffffffffffffffffffff161415156120e557600080fd5b80600160006101000a81548173ffffffffffffffffffffffffffffffffffffffff021916908373ffffffffffffffffffffffffffffffffffffffff16021790555050565b6000809054906101000a900473ffffffffffffffffffffffffffffffffffffffff1673ffffffffffffffffffffffffffffffffffffffff163373ffffffffffffffffffffffffffffffffffffffff1614806121d15750600160009054906101000a900473ffffffffffffffffffffffffffffffffffffffff1673ffffffffffffffffffffffffffffffffffffffff163373ffffffffffffffffffffffffffffffffffffffff16145b15156121dc57600080fd5b600073ffffffffffffffffffffffffffffffffffffffff168373ffffffffffffffffffffffffffffffffffffffff161415151561221857600080fd5b612223838383612999565b505050565b60095481565b60006060806002600085815260200190815260200160002060009054906101000a900473ffffffffffffffffffffffffffffffffffffffff16925060058481548110151561227857fe5b90600052602060002090600202016000018054600181600116156101000203166002900480601f01602080910402602001604051908101604052809291908181526020018280546001816001161561010002031660029004801561231d5780601f106122f25761010080835404028352916020019161231d565b820191906000526020600020905b81548152906001019060200180831161230057829003601f168201915b5050505050915060058481548110151561233357fe5b90600052602060002090600202016001018054600181600116156101000203166002900480601f0160208091040260200160405190810160405280929190818152602001828054600181600116156101000203166002900480156123d85780601f106123ad576101008083540402835291602001916123d8565b820191906000526020600020905b8154815290600101906020018083116123bb57829003601f168201915b505050505090509193909250565b600063f0b9e5ba7c01000000000000000000000000000000000000000000000000000000000290509392505050565b66b1a2bc2ec50000341015151561242b57600080fd5b612436338383612999565b5050565b6000809054906101000a900473ffffffffffffffffffffffffffffffffffffffff1681565b6000806008600084815260200190815260200160002054905060068181548110151561248757fe5b906000526020600020906003020160020160009054906101000a900460ff16915050919050565b6000806124ba83611c76565b90508073ffffffffffffffffffffffffffffffffffffffff168473ffffffffffffffffffffffffffffffffffffffff16148061255457506003600084815260200190815260200160002060009054906101000a900473ffffffffffffffffffffffffffffffffffffffff1673ffffffffffffffffffffffffffffffffffffffff168473ffffffffffffffffffffffffffffffffffffffff16145b91505092915050565b600080828401905083811015151561257157fe5b8091505092915050565b600082821115151561258957fe5b818303905092915050565b600080823b905060008111915050919050565b8173ffffffffffffffffffffffffffffffffffffffff166125c782611c76565b73ffffffffffffffffffffffffffffffffffffffff161415156125e957600080fd5b600073ffffffffffffffffffffffffffffffffffffffff166003600083815260200190815260200160002060009054906101000a900473ffffffffffffffffffffffffffffffffffffffff1673ffffffffffffffffffffffffffffffffffffffff1614151561270c5760006003600083815260200190815260200160002060006101000a81548173ffffffffffffffffffffffffffffffffffffffff021916908373ffffffffffffffffffffffffffffffffffffffff160217905550600073ffffffffffffffffffffffffffffffffffffffff168273ffffffffffffffffffffffffffffffffffffffff167f8c5be1e5ebec7d5bd14f71427d1e84f3dd0314c0f7b2291e5b200ac8c7c3b925836040518082815260200191505060405180910390a35b5050565b8173ffffffffffffffffffffffffffffffffffffffff1661273082611c76565b73ffffffffffffffffffffffffffffffffffffffff1614151561275257600080fd5b6127a56001600460008573ffffffffffffffffffffffffffffffffffffffff1673ffffffffffffffffffffffffffffffffffffffff1681526020019081526020016000205461257b90919063ffffffff16565b600460008473ffffffffffffffffffffffffffffffffffffffff1673ffffffffffffffffffffffffffffffffffffffff1681526020019081526020016000208190555060006002600083815260200190815260200160002060006101000a81548173ffffffffffffffffffffffffffffffffffffffff021916908373ffffffffffffffffffffffffffffffffffffffff1602179055505050565b600073ffffffffffffffffffffffffffffffffffffffff166002600083815260200190815260200160002060009054906101000a900473ffffffffffffffffffffffffffffffffffffffff1673ffffffffffffffffffffffffffffffffffffffff161415156128ad57600080fd5b816002600083815260200190815260200160002060006101000a81548173ffffffffffffffffffffffffffffffffffffffff021916908373ffffffffffffffffffffffffffffffffffffffff1602179055506129526001600460008573ffffffffffffffffffffffffffffffffffffffff1673ffffffffffffffffffffffffffffffffffffffff1681526020019081526020016000205461255d90919063ffffffff16565b600460008473ffffffffffffffffffffffffffffffffffffffff1673ffffffffffffffffffffffffffffffffffffffff168152602001908152602001600020819055505050565b6129a1612d09565b600060408051908101604052808581526020018481525091506001600583908060018154018082558091505090600182039060005260206000209060020201600090919290919091506000820151816000019080519060200190612a06929190612d23565b506020820151816001019080519060200190612a23929190612d23565b505050039050846002600083815260200190815260200160002060006101000a81548173ffffffffffffffffffffffffffffffffffffffff021916908373ffffffffffffffffffffffffffffffffffffffff160217905550612ace6001600460008873ffffffffffffffffffffffffffffffffffffffff1673ffffffffffffffffffffffffffffffffffffffff1681526020019081526020016000205461255d90919063ffffffff16565b600460008773ffffffffffffffffffffffffffffffffffffffff1673ffffffffffffffffffffffffffffffffffffffff168152602001908152602001600020819055508473ffffffffffffffffffffffffffffffffffffffff167fd24b23e36236935323e48d29e3171bc700dcc951a9d4714bbf82354128d529e782868643604051808581526020018060200180602001848152602001838103835286818151815260200191508051906020019080838360005b83811015612b9d578082015181840152602081019050612b82565b50505050905090810190601f168015612bca5780820380516001836020036101000a031916815260200191505b50838103825285818151815260200191508051906020019080838360005b83811015612c03578082015181840152602081019050612be8565b50505050905090810190601f168015612c305780820380516001836020036101000a031916815260200191505b50965050505050505060405180910390a25050505050565b6080604051908101604052806000815260200160008152602001600015158152602001600073ffffffffffffffffffffffffffffffffffffffff1681525090565b828054600181600116156101000203166002900490600052602060002090601f016020900481019282601f10612cca57805160ff1916838001178555612cf8565b82800160010185558215612cf8579182015b82811115612cf7578251825591602001919060010190612cdc565b5b509050612d059190612da3565b5090565b604080519081016040528060608152602001606081525090565b828054600181600116156101000203166002900490600052602060002090601f016020900481019282601f10612d6457805160ff1916838001178555612d92565b82800160010185558215612d92579182015b82811115612d91578251825591602001919060010190612d76565b5b509050612d9f9190612da3565b5090565b612dc591905b80821115612dc1576000816000905550600101612da9565b5090565b905600a165627a7a72305820d20236597637dacd7f42a7b2c202740b79fc6137d44afbaa5a8e4334945e70770029",
  "source": "pragma solidity ^0.4.18;\n\nimport \"./CryptoPets.sol\";\n\ncontract Main is CryptoPets {\n\n    function Main(address _admin, address _operator) public {\n        admin = _admin;\n        operator = _operator;\n    }\n\n    struct SellingToken {\n        uint256 tokenId;\n        uint256 price;\n        bool isSold;\n        address seller;\n    }\n\n    SellingToken[] public sellingTokens;\n    mapping (address => uint256) public sellingTokenOwner;\n    mapping (uint256 => uint256) internal indexPosition;\n\n    uint256 public minPrice = 0.05 ether;\n    \n    event SellToken(address indexed _seller, uint256 _tokenId, uint256 _price, uint256 _blockNumber);\n    event BuyToken(address indexed _buyer, address indexed _seller, uint256 _tokenId, uint256 _price, uint256 _blockNumber);\n    event CancelOrder(address indexed _seller, uint256 _tokenId, uint256 _blockNumber);\n\n    function onERC721Received(address _from, uint256 _tokenId, bytes _data) public returns(bytes4) {\n        return ERC721_RECEIVED;\n    }\n\n    function sellToken(uint256 _tokenId, uint256 _price) public canTransfer(_tokenId) {\n        require(_price >= minPrice);\n\n        safeTransferFrom(msg.sender, address(this), _tokenId);\n\n        SellingToken memory token = SellingToken({\n            tokenId: _tokenId,\n            price: _price,\n            isSold: false,\n            seller: msg.sender\n        });\n\n        uint256 index = sellingTokens.push(token) - 1;\n        indexPosition[_tokenId] = index;\n        sellingTokenOwner[msg.sender] = sellingTokenOwner[msg.sender].add(1);\n\n        emit SellToken(msg.sender, _tokenId, _price, block.number);\n    }\n\n    function buyToken(uint256 _tokenId) public payable {\n        uint256 index = indexPosition[_tokenId];\n        address seller = sellingTokens[index].seller;\n        uint256 price = sellingTokens[index].price;\n\n        require(msg.value >= price);\n\n        this.safeTransferFrom(address(this), msg.sender, _tokenId);\n\n        seller.transfer(price);\n        sellingTokens[index].isSold = true;\n        sellingTokenOwner[seller] = sellingTokenOwner[seller].sub(1);\n\n        if (msg.value > price) {\n            uint256 change = msg.value - price;\n            \n            msg.sender.transfer(change);\n        }\n\n        emit BuyToken(msg.sender, seller, _tokenId, price, block.number);\n    }\n\n    function cancelOrder(uint256 _tokenId) public {\n        uint256 index = indexPosition[_tokenId];\n        address seller = sellingTokens[index].seller;\n        uint256 price = sellingTokens[index].price;\n\n        require(msg.sender == seller);\n\n        this.safeTransferFrom(address(this), msg.sender, _tokenId);\n\n        delete sellingTokens[indexPosition[_tokenId]];\n        delete indexPosition[_tokenId];\n        sellingTokenOwner[msg.sender] = sellingTokenOwner[msg.sender].sub(1);\n\n        emit CancelOrder(msg.sender, _tokenId, block.number);\n    }\n\n    function getPriceByTokenId(uint256 _tokenId) public view returns (uint256) {\n        uint256 index = indexPosition[_tokenId];\n        return sellingTokens[index].price;\n    }\n\n    function getSellingStatusByTokenId(uint256 _tokenId) public view returns (bool) {\n        uint256 index = indexPosition[_tokenId];\n        return sellingTokens[index].isSold;\n    }\n\n    function getSellerAddressByTokenId(uint256 _tokenId) public view returns (address) {\n        uint256 index = indexPosition[_tokenId];\n        return sellingTokens[index].seller;\n    }\n\n    function getListOfTokenBySeller(address _seller) public view returns (uint256[]) {\n        uint256[] memory temp = new uint256[](sellingTokenOwner[_seller]);\n        uint256 count = 0;\n\n        for (uint256 i = 0; i < sellingTokens.length; i++) {\n            if (sellingTokens[i].seller == _seller) {\n                temp[count] = i;\n                count = count.add(1);\n            }\n        }\n\n        return temp;\n    }\n\n}",
  "sourcePath": "/Users/tam/Desktop/crypto-pets/contracts/Main.sol",
  "compiler": {
    "name": "solc",
    "version": "0.4.23+commit.124ca40d.Emscripten.clang"
  },
  "schemaVersion": "2.0.0",
  "updatedAt": "2018-05-12T15:50:36.944Z"
}